:020000040800F2
:1000000000000A20F92300089D2300089F23000810
:10001000A1230008A3230008A52300080000000076
:10002000000000000000000000000000A7230008FE
:10003000A923000800000000AB230008AD2300083E
:1000400049240008492400084924000849240008DC
:1000500049240008492400084924000849240008CC
:1000600049240008492400084924000849240008BC
:1000700049240008492400084924000849240008AC
:10008000492400084924000849240008492400089C
:10009000492400084924000849240008492400088C
:1000A000492400084924000849240008492400087C
:1000B000492400084924000849240008492400086C
:1000C000492400084924000849240008492400085C
:1000D000492400084924000849240008492400084C
:1000E000492400084924000849240008492400083C
:1000F00049240008492400084924000800000000A1
:10010000492400084924000849240008492400081B
:10011000492400084924000849240008492400080B
:1001200049240008492400084924000849240008FB
:1001300049240008492400084924000849240008EB
:1001400049240008492400084924000849240008DB
:1001500049240008492400084924000849240008CB
:1001600049240008492400084924000849240008BB
:100170004924000849240008492400080000000020
:10018000492400084924000849240008492400089B
:100190004924000849240008000000000000000075
:1001A0000000000000000000492400084924000865
:0C01B000492400084924000849240008E4
:1001BC0010B5054C237833B9044B13B10448AFF395
:1001CC0000800123237010BD0400002000000000FB
:1001DC00A424000808B5034B1BB103490348AFF333
:1001EC00008008BD0000000008000020A4240008C6
:1001FC0038B50A4B054618684FF47A73B0FBF3F028
:10020C0000F072F8044638B9024629464FF0FF3028
:10021C0000F036F8204638BD012038BD0000002023
:10022C0010B5032000F01AF80020FFF7E1FF044698
:10023C0018B901F0EFFF204610BD0124FBE70000C8
:10024C00024A136801331360704700BF200000207E
:10025C00014B1868704700BF20000020074AD36884
:10026C0023F4E0631B041B0C43F0BF63000243F454
:10027C00003300F4E0600343D360704700ED00E00E
:10028C00174B30B5DC68C4F30224C4F10703251DF9
:10029C00042B28BF0423062D4FF0010505FA03F3A8
:1002AC0003F1FF338CBF033C00241940A14005FA35
:1002BC0004F4013C2240002842EA01024FEA0212F7
:1002CC00AFBF00F1604000F00F00064BD2B2A5BFEB
:1002DC0000F56140D2B21A5480F8002330BD00BF43
:1002EC0000ED00E014ED00E00138B0F1807F0AD29F
:1002FC00064B074A5860F02182F823100020072291
:10030C0098601A6070470120704700BF10E000E051
:10031C0000ED00E0037C012B5FD001230374036824
:10032C000022C3F8C420C3F8C820CA0748BFD3F8BA
:10033C00C420816142BF6FEA12426FEA0242C3F8E5
:10034C00C4208A0742BFD3F8C42042F4F812C3F881
:10035C00C4204A0742BFD3F8C82042F00102C3F8B8
:10036C00C8200A0742BFD3F8C82042F00202C3F8E3
:10037C00C820CA0642BFD3F8C82042F00C02C3F80A
:10038C00C8208A0642BFD3F8C82042F01002C3F836
:10039C00C8204A0642BFD3F8C82042F02002C3F856
:1003AC00C8200A0642BFD3F8C82042F04002C3F866
:1003BC00C820CA0542BFD3F8C82042F08002C3F857
:1003CC00C8208A0542BFD3F8C82042F4F852C3F8BB
:1003DC00C8200023037418467047022070470000A1
:1003EC0073B50D460446002800F0A480437C0BB97D
:1003FC0001F028FF03236374002300932368D3F8D0
:10040C00302442F08072C3F83024D3F8303403F037
:10041C0080730093009BFFF71BFF06462268D2F8FF
:10042C000C34D90475D5D2F8303423F45E3323F46C
:10043C00FE73C2F8303495E80900DB0243EA80030E
:10044C00A868D2F8301443EA00430B43C2F83034A6
:10045C0000230193D2F8303443F00103C2F8303456
:10046C00D2F8303403F001030193019BFFF7F0FE47
:10047C0006462368D3F80C24D20554D5D3F8A02013
:10048C00286842F00602C3F8A020D3F8942022F08A
:10049C000302C3F894206268D3F8941042F001026E
:1004AC000A43C3F89420D3F8A420E16822F0030295
:1004BC00C3F8A420D3F8A4200A43C3F8A4209A6854
:1004CC00A16822F0FF029A609A680A4369689A60F0
:1004DC000029194A08BF01214A43A9688A404FF4F0
:1004EC00FA514143B2FBF1F2D3F8181421F03F0159
:1004FC00C3F81814D3F8181400200A43C3F81824AE
:10050C00C3F8C400C3F8C80001236061A061637420
:10051C0007E0FFF79DFE801BB0F57A7F7FF67EAF7C
:10052C00032002B070BDFFF793FE801BB0F57A7FFD
:10053C009FD9F5E70120F4E700093D00037C012B6E
:10054C000BD003681A6B22F003021A631A6B114367
:10055C001963002303741846704702207047037C0C
:10056C00012B30B56AD003680C685A6B8D6942F068
:10057C0001025A63D3F8002422F00102C3F80024CC
:10058C00D3F8002442F00102C3F80024DA6822F008
:10059C000302DA60DA682243DA605A6922F0070251
:1005AC005A61CA695C692A434D692A4322435A61DC
:1005BC001A694D6822F00F021A611C692C431C61E8
:1005CC00D3F8004424F00E04C3F80044D3F80024FC
:1005DC008C6842EA4502C3F800245A6E120C1204CD
:1005EC005A665A6E22435A66D3F800240D6922F0DB
:1005FC00F002C3F80024CA68D3F800442A434D6AB9
:10060C002A430D6A896A2A432243C3F800249A6E4E
:10061C0022F001029A669A6E0A439A66D3F808246D
:10062C0042F00102C3F80824D3F8082442F0020275
:10063C00C3F8082400230374184630BD022030BDD3
:10064C00037C012B30B52AD00268164B946E2340E4
:10065C00936691E828002B438D68946E2B43CD68EC
:10066C002B430D692B434D692B438D692B43CD696E
:10067C002B430D6A2B434D6A2B438D6A2B43CD6A5A
:10068C00096B2B4323439366936E23F0020393660B
:10069C00936E0B43936600230374184630BD0220FF
:1006AC0030BD00BFFF80F0FE037C012B0BD0036834
:1006BC00DA6A22F01F02DA62DA6A1143D962002385
:1006CC0003741846704702207047037C012B30B529
:1006DC0035D091E814000368CD68944238BF1446B5
:1006EC00D3F8982002F0FC22C3F89820D3F8982075
:1006FC0042EA04422243C3F89820D3F89C2002F427
:10070C000042C3F89C208A68D3F89C40120642EA47
:10071C0005420D6949692A432243C3F89C20D3F84A
:10072C00A42022F47F42C3F8A420D3F8A42042EAE8
:10073C000122C3F8A42000230374184630BD022004
:10074C0030BD0000037C012B30B55CD003680C6815
:10075C009A688D6822F47F429A609A6842EA042271
:10076C009A609A6F4C6892B29A679A6F42EA044206
:10077C009A679C6F254A14409C679C6F2C439C671E
:10078C00DC6FCD681440DC67DC6F2C43DC67D3F87E
:10079C0080400D691440C3F88040D3F880402C434E
:1007AC00C3F88040D3F884404D691440C3F88440AA
:1007BC00D3F884402C43C3F88440D3F8844024F00D
:1007CC008074C3F88440D3F884408D692C43C3F8FB
:1007DC008440D3F88840CD69096A1440C3F8884036
:1007EC00D3F888402C43C3F88840D3F88C4022407F
:1007FC00C3F88C20D3F88C200A43C3F88C20002338
:10080C000374184630BD022030BD00BF0000FFFF4E
:10081C00037C012B10D00368D3F81C2422F0C06297
:10082C00C3F81C24D3F81C2442EA4161C3F81C14FD
:10083C000023037418467047022070472DE9F74FC8
:10084C00D1F80080DFF8A091654A002338FA03F450
:10085C0002D103B0BDE8F08F4FF0010E0EFA03FE8B
:10086C0018EA0E0600F0AB804C6824F01007022F3B
:10087C0016D14FEAD30A00EB8A0A03F0070BDAF819
:10088C0020504FEA8B0B4FF00F0C0CFA0BFC25EAA7
:10089C000C0C0D6905FA0BF545EA0C05CAF820504D
:1008AC004FEA430A0325D0F800B005FA0AF5ED43E8
:1008BC0004F0030C0BEA050B0CFA0AFC013F4CEAA2
:1008CC000B0C012FC0F800C011D8876807EA050B84
:1008DC00CF6807FA0AFC4CEA0B078760476827EADF
:1008EC000E0EC4F300179F4047EA0E074760C76817
:1008FC003D408F6807FA0AF73D43C560E5005ED5B9
:10090C00D9F8605045F00105C9F86050D9F860502D
:10091C0023F0030707F1804705F0010507F5803741
:10092C00019503F0030E019DD7F808A04FF00F0CB2
:10093C004FEA8E0E0CFA0EF5B0F1904F2AEA050C28
:10094C003FD0284DA8423ED005F58065A8423CD04A
:10095C0005F58065A8423AD005F58065A84238D0E7
:10096C0005F58065A84236D005F58065A84234D0DF
:10097C0005F58065A84214BF0825072505FA0EF574
:10098C0045EA0C05BD601568F74314F4803F0CBFB5
:10099C003D4035431560556814F4003F0CBF3D4095
:1009AC0035435560956814F4801F0CBF3D403543AA
:1009BC009560D568A40254BF3D403543D5600133E2
:1009CC0044E70025DAE70125D8E70225D6E7032519
:1009DC00D4E70425D2E70525D0E70625CEE700BFEE
:1009EC0000040140000400480010024010B5044609
:1009FC0000284AD090F8413003F0FF021BB980F870
:100A0C00402001F033FC242384F841302368E16852
:100A1C001A6822F001021A60626822F070621A6190
:100A2C009A68012922F400429A60A26824D142F407
:100A3C0000429A605A68616942F0007242F40042C6
:100A4C005A60DA6822F40042DA6022690A43A1692A
:100A5C0042EA0122DA60216AE2690A431A601A68E2
:100A6C0042F001021A6000202023606484F84130B7
:100A7C00206384F8420010BD42F4044202299A60BB
:100A8C0004BF4FF400625A60D4E7012010BD90F807
:100A9C004120D2B2202A10B51DD190F84030012B44
:100AAC0019D0242380F8413003681C6824F0010419
:100ABC001C601C6824F480541C601C682143196061
:100ACC00196841F001011960002380F8412080F879
:100ADC004030184610BD022010BD10B590F84140B2
:100AEC00E4B2202C1CD190F84030012B18D02423D8
:100AFC0080F8413003681A6822F001021A601A6803
:100B0C0022F4706242EA012119601A6842F0010273
:100B1C001A60002380F8414080F84030184610BD20
:100B2C00022010BD2DE9F043D20104684F68E5683E
:100B3C00D1F800E0D1F818908432A3180EF1010618
:100B4C00586800F0F0205860E068C5F30B45C0F31E
:100B5C000B403D44304440EA05405860E068CD68A5
:100B6C00C0F30A000544986800F0F0209860E6682D
:100B7C008868C6F30A060130304440EA05409860A4
:100B8C0018690E6920F0070018614FF0000C1E6107
:100B9C009D6991F8320091F83180C3F818C091F832
:100BAC00305045EA096545EA082545EA00459D614E
:100BBC00586920F0FF00586148695861D86920F4E1
:100BCC00E06020F00700D861086ACD690543DD615B
:100BDC00986A486AC3F828C098621EB3012E23D0C5
:100BEC00B01E022822D9072E0CBF02200120DD6A7C
:100BFC0005F0E025DD628D6AC96AA7EB0E07454357
:100C0C007843033040EA0540D862186B20F4FF604B
:100C1C0020F0070018631963A35843F00103A35095
:100C2C00BDE8F0830420E2E70320E0E70220DEE7E2
:100C3C0038B50446002863D090F8A13003F0FF02C9
:100C4C001BB980F8A02001F07FFB022384F8A130AF
:100C5C002368A0689A6922F070429A616268996967
:100C6C000243E0680243206902430A439A619A688E
:100C7C00244960690A409A609A6842EA0042A06975
:100C8C0002439A60DA68E0690A40DA60DA6842EA9C
:100C9C000042206A0243DA601A69606A0A401A61EB
:100CAC001A6942EA0042A06A02431A615A69114069
:100CBC0059615A69E16A42EA0142216B0A435A615D
:100CCC00D96A94F8360094F8355001F07F41D96216
:100CDC00D96A94F834200A4342EA052242EA0042D7
:100CEC00DA625A6B42F006025A639A6942F00102C8
:100CFC009A6100200123C4F8A40084F8A13038BD07
:100D0C00012038BD00F800F0F8B590F8A030012BA8
:100D1C0006468E4694464FF002001DD034240D46F4
:100D2C0086F8A10004FB02640FCD0127383486F845
:100D3C00A0700FC40FCD0FC40FCD0FC42B68236050
:100D4C00304662467146FFF7EDFE336800205F6265
:100D5C0086F8A17086F8A000F8BD0000074B186853
:100D6C0000F4C060B0F5806F07D0D3F8803013F476
:100D7C00807F14BF4FF4007000207047007000405B
:100D8C00294B1A6828BB02F4C062B2F5806FD3F805
:100D9C00802022F48072C3F8802019D11A6822F4C2
:100DAC00C06242F400721A60204A116832224A432F
:100DBC001F49B2FBF1F2194601325869400500D5C2
:100DCC0022B94B695B052DD503207047013AF4E736
:100DDC007047B0F5007F20D102F4C062B2F5806F8D
:100DEC00D3F8802042F48072C3F880201AD11A689C
:100DFC0022F4C06242F400721A600C4A116832226A
:100E0C004A430B49B2FBF1F21946013258694005CD
:100E1C00D7D5002AD5D0013AF8E722F4C06242F4C3
:100E2C0080621A60002070470070004000000020B3
:100E3C0040420F00024A536843F4007353607047FA
:100E4C000070004037B51C4DAB6DDA00044618D568
:100E5C00FFF784FFB0F5007F23D1802C28D9A02C7C
:100E6C008CBF02200120154A136823F00F030343A3
:100E7C001360136803F00F03181A18BF012003B096
:100E8C0030BDAB6D43F08053AB65AB6D03F080535D
:100E9C000193019BFFF762FFAB6D23F08053AB65B1
:100EAC00D8E77F2C06D8A4F1700358425841DAE7F2
:100EBC000020D8E70220D6E70010024000200240B4
:100ECC00254B9A68D96812F00C0205D00C2A15D162
:100EDC0001F00301012918D119682048090755BFF1
:100EEC00D3F894101968C1F30321C1F3031150F81E
:100EFC00210082B30C2A09D000207047042A29D083
:100F0C00082A174818BF002070470020D968DA68F3
:100F1C0001F00301C2F30312022902F1010205D010
:100F2C00032912D0D968C1F3062103E0D9680D4812
:100F3C00C1F30621DB68B0FBF2F0C3F3416301336C
:100F4C0048435B00B0FBF3F07047D9680448C1F329
:100F5C000621EFE70348704700100240CC2400083C
:100F6C0000127A000024F4002DE9F743054608B975
:100F7C00012046E0A84C0368A668E768D80606F08E
:100F8C000C0607F0030772D51EB10C2E51D1012FA0
:100F9C004FD12368990702D5AB69002BE8D02368A1
:100FAC00286A1A0756BFD4F8943023681B0903F03B
:100FBC00F003834228D2FFF745FF0028D8D12368DD
:100FCC0043F00803236023682A6A23F0F0031343D9
:100FDC0023606368EA6923F47F4343EA0223636076
:100FEC00FFF76EFFA3688D4AC3F30313D35C03F0C2
:100FFC001F03D8408A4B18600020FFF7F9F800282F
:10100C0035D003B0BDE8F083236843F008032360B8
:10101C00236823F0F003034323606368EA6923F435
:10102C007F4343EA02236360FFF70CFF0028D7D00D
:10103C009EE7AB69002B3AD0236843F00103236091
:10104C00FFF706F9804623689B0728D5236843F0F1
:10105C000803236023682A6A23F0F00313432360F8
:10106C006368EA6923F47F4343EA022363602B68D5
:10107C00D9072DD42B689A076BD42B68190700F16C
:10108C00A0802B685A0700F1CD802B689A0600F1DE
:10109C003681AB6A002B40F05C810020B1E7FFF792
:1010AC00D7F8A0EB08000228CDD90320A9E72368C4
:1010BC0023F001032360FFF7CBF8804623689807E1
:1010CC00D5D5FFF7C5F8A0EB08000228F6D9ECE758
:1010DC00082E03D00C2E08D1032F06D123689B03B6
:1010EC00C8D56B68002BC5D142E76B68B3F5803F60
:1010FC0010D1236843F480332360FFF7A9F88046AE
:10110C0023689803B6D4FFF7A3F8A0EB0800642873
:10111C00F6D9CAE7B3F5A02F04D1236843F4802392
:10112C002360E6E7226822F480322260226822F4EF
:10113C0080222260002BE0D1FFF78AF880462368DA
:10114C00990397D5FFF784F8A0EB08006428F6D92B
:10115C00ABE7042E03D00C2E10D1022F0ED1236836
:10116C005A0503D5EB68002B3FF402AF63682A697C
:10117C0023F0FE4343EA026363607EE7EB687BB1D6
:10118C00236843F480732360FFF762F807462368F3
:10119C005B05EBD4FFF75CF8C01B0228F7D984E79A
:1011AC00236823F480732360FFF752F80746236803
:1011BC0058057FF562AFFFF74BF8C01B0228F6D934
:1011CC0073E76B699BB1D4F8943043F00103C4F816
:1011DC009430FFF73DF80746D4F894309B073FF561
:1011EC0050AFFFF735F8C01B0228F5D95DE7D4F8EE
:1011FC00943023F00103C4F89430FFF729F8074624
:10120C00D4F8943098077FF53CAFFFF721F8C01B5A
:10121C000228F5D949E700BF00100240BC240008A1
:10122C0000000020A36DD90029D4A36D43F0805396
:10123C00A365A36D03F080530193019B4FF001084C
:10124C00714F3B68DA051DD5AB68012B2BD1D4F857
:10125C00903043F00103C4F89030FEF7F9FF41F2EF
:10126C0088390746D4F89030980742D5B8F1000F6A
:10127C003FF40BAFA36D23F08053A36505E74FF04C
:10128C000008DDE73B6843F480733B60FEF7E0FF4A
:10129C0081463B68DB05D7D4FEF7DAFFA0EB0900EB
:1012AC000228F6D901E7052B06D1D4F8903043F08B
:1012BC000403C4F89030CAE7D4F8902022F001025D
:1012CC00C4F89020D4F8902022F00402C4F89020A6
:1012DC00002BC2D1FEF7BCFF41F288390746D4F887
:1012EC0090309907C2D5FEF7B3FFC01B4845F6D91D
:1012FC00DBE6FEF7ADFFC01B4845B3D9D5E66B6AFC
:10130C009BB1D4F8983043F00103C4F89830FEF741
:10131C009FFF0746D4F898309B073FF5BAAEFEF70F
:10132C0097FFC01B0228F5D9BFE6D4F8983023F0FC
:10133C000103C4F89830FEF78BFF0746D4F89830B9
:10134C0098077FF5A6AEFEF783FFC01B0228F5D9E0
:10135C00ABE60C2E3FF40CAE022B236823F080730B
:10136C00236036D1FEF774FF0646236899012AD410
:10137C00AB6B6A6BDB0643EA0223EA6A13432A6B04
:10138C00013A43EA0213EA6B5208013A43EA425328
:10139C002A6C5208013A43EA4263E360236843F043
:1013AC0080732360E36843F08073E360FEF750FFC3
:1013BC00054623689A013FF570AEFEF749FF401BC6
:1013CC000228F6D971E6FEF743FF801B0228CCD920
:1013DC006BE6236813F0205F02BFE36823F003037E
:1013EC00E360E36823F0887323F48033E360FEF753
:1013FC002FFF054623689B017FF54FAEFEF728FFB4
:10140C00401B0228F6D950E6007000402DE9F84345
:10141C000E46054610B90120BDE8F883744A1368DE
:10142C0003F00F038B4234D3296811F001073BD131
:10143C002A68910740F1C0806E49A8688B6823F038
:10144C00F00303438B606A490B6803F00F039E4261
:10145C00C0F0BA8012F0040F664C40F0C180130744
:10146C0006D5A3682A6923F4605343EAC203A36038
:10147C00FFF726FDA368604AC3F30313D35C03F0A4
:10148C001F03D8405D4B18600020BDE8F843FEF701
:10149C00AFBE136823F00F030B431360136803F004
:1014AC000F039942B7D1BFE76B68524C032B6DD138
:1014BC0023689B01AFD5E36803F00303012B1ED116
:1014CC0023684F4A1F0755BFD4F894302368C3F3E1
:1014DC000323C3F3031352F82320E768E368C3F331
:1014EC000313581C07F00303022B0AD0032B36D02E
:1014FC00B2FBF0F3E768C7F306277B4308E0002252
:10150C00EBE7E2683F4BC2F30622B3FBF0F3534325
:10151C00E268C2F3416201325200B3FBF2F33A4A81
:10152C00934221D80027A3686A6823F0030313436E
:10153C00A360FEF78DFE41F288398046A3686A6885
:10154C0003F00C03B3EB820F3FF472AFFEF780FE97
:10155C00A0EB08004845F1D90320BDE8F883E26808
:10156C002A4BC2F30622D0E7A36813F0F00F07D181
:10157C00A36823F0F00343F08003A3608027D2E735
:10158C008807CFD5AB68002BCCD1F1E7022B0AD161
:10159C00236813F4003F3FF43EAFFFF791FC1A4B66
:1015AC009842BFD9E4E71BB9236813F0020FF2E7A6
:1015BC00236813F4806FEEE7802F7FF444AF0D495E
:1015CC008B6823F0F0033DE70B6823F00F033343E4
:1015DC000B600B6803F00F039E427FF41CAF39E7DE
:1015EC00A368E96823F4E0630B43A36037E700BF0B
:1015FC000020024000100240BC2400080000002023
:10160C00CC2400080024F40000B4C40400127A00B6
:10161C00F8B53F4BDA6812F0030F05460E461C4630
:10162C00006822D0DB6803F00303834230D17BB324
:10163C00236823F080632360FEF70AFE07462368C5
:10164C001A012ED4AF686B6896B3012E4CD1226967
:10165C00304911402A6941EA0721013B520841EA0D
:10166C000313013A43EA42532DE002280CD003281D
:10167C0010D001280CD11B689F0734D5E36823F0E8
:10168C0003031843E060D3E71B6813F4806FF5D1B4
:10169C000120F8BD1A689103F0D41B6813F4802F55
:1016AC00F5E7FEF7D5FDC01B0228C8D90320F8BD0D
:1016BC00E86826691849C20642EA072231400A4303
:1016CC00013B42EA03132361236843F080632360E8
:1016DC00FEF7BEFD064623681B0113D52369AA69D4
:1016EC00134323610020F8BD21690C4A0A4042EAE9
:1016FC000722013B42EA03136A695208013A43EAA2
:10170C004263E0E7FEF7A4FD801B0228E3D9CDE796
:10171C00001002400F809FFF0F80FF070F80FFF922
:10172C00F8B53F4BDA6812F0030F05460E461C461F
:10173C00006822D0DB6803F00303834230D17BB313
:10174C00236823F080532360FEF782FD074623684D
:10175C009A002ED4AF686B6896B3012E4CD1626997
:10176C00304911402A6941EA0721013B520841EAFC
:10177C000313013A43EA42532DE002280CD003280C
:10178C0010D001280CD11B689F0734D5E36823F0D7
:10179C0003031843E060D3E71B6813F4806FF5D1A3
:1017AC000120F8BD1A689103F0D41B6813F4802F44
:1017BC00F5E7FEF74DFDC01B0228C8D90320F8BD84
:1017CC00E86866691849C20642EA072231400A43B2
:1017DC00013B42EA03136361236843F080532360A7
:1017EC00FEF736FD064623689B0013D56369AA698C
:1017FC00134363610020F8BD61690C4A0A4042EA58
:10180C000722013B42EA03136A695208013A43EA90
:10181C004263E0E7FEF71CFD801B0228E3D9CDE70D
:10182C00001002400F809FFF0F80FF070F80FFF911
:10183C002DE9F347056815F40065044623D0C16E05
:10184C00402914D004D8C1B120292BD001251AE08D
:10185C00602901D08029F9D14E4AE16ED2F89C3032
:10186C0023F0E0030B43C2F89C3000250BE0494AFF
:10187C00D36843F48033D360EEE70430FFF7C8FE3F
:10188C0005460028E8D02368DB0409D5216FB1F5A3
:10189C00007F14D00BD8C1B1B1F5807F71D0012578
:1018AC002E4621E000212030FFF73AFFE8E7B1F5A2
:1018BC00407F02D0B1F5806FF1D12E4609E0354A58
:1018CC00D36843F48033D360F7E7201DFFF7A0FE05
:1018DC000646002E5BD12F4A216FD2F89C3023F4A0
:1018EC00E0630B43C2F89C3023689F0365D5294FF6
:1018FC00BB6DD80040F1F3814FF00008DFF89890F1
:10190C00D9F8003043F48073C9F80030FEF7A0FC1E
:10191C008246D9F80030D90540D5002E40F0978189
:10192C00D7F8903013F4407315D0D4F89820934224
:10193C0011D0D7F89030D7F8902042F48032C7F805
:10194C009020D7F8902023F4407322F48032C7F80B
:10195C009020C7F89030DA0709D5FEF779FC41F2F0
:10196C00883A8146D7F890309B0740F16881D7F8C8
:10197C009030D4F8982023F440731343C7F8903078
:10198C0014E0002104F12000FFF7CAFEA0E7354661
:10199C00AAE700BF0010024000700040FEF758FCA0
:1019AC00A0EB0A000228B4D903252E46B8F1000F8B
:1019BC0003D0BB6D23F08053BB652368DF0708D5CC
:1019CC00C049E06BD1F8882022F003020243C1F831
:1019DC008820980708D5BB49206CD1F8882022F0C4
:1019EC000C020243C1F88820590708D5B549606C30
:1019FC00D1F8882022F030020243C1F888201A075F
:101A0C0008D5B049A06CD1F8882022F0C00202435E
:101A1C00C1F88820DF0608D5AA49E06CD1F88820E7
:101A2C0022F440720243C1F88820980608D5A549D3
:101A3C00206DD1F8882022F440620243C1F888203E
:101A4C00990508D59F49606ED1F8882022F4402270
:101A5C000243C1F888205A0508D59A49A06ED1F8DE
:101A6C00882022F440120243C1F888205F0608D572
:101A7C009449606DD1F8882022F440520243C1F899
:101A8C008820180608D58F49A06DD1F8882022F43B
:101A9C0040420243C1F88820D90508D58949E06D38
:101AAC00D1F8882022F440320243C1F88820DA02AF
:101ABC0008D58449206ED1F89C2022F00302024301
:101ACC00C1F89C209F0410D57E4A616FD2F88830F3
:101ADC0023F040630B43B1F1006FC2F8883040F043
:101AEC00B880D36843F48013D360236818030FD5F0
:101AFC00A16F744BB1F5804FD3F89C2040F0B680A9
:101B0C0042F48042C3F89C20DA6842F48032DA60F6
:101B1C002368590310D56B4AE16FD2F8883023F053
:101B2C0040630B43B1F1006FC2F8883040F0BD80C8
:101B3C00D36843F48013D36023685A0414D56149E5
:101B4C00D4F88020D1F8883023F040531343B2F1FD
:101B5C00805FC1F8883007D10221201DFFF758FDA6
:101B6C000646002818BF05462268D30309D55549F7
:101B7C00D4F88400D1F89C3023F004030343C1F85B
:101B8C009C30970209D54F49D4F88800D1F89C3085
:101B9C0023F018030343C1F89C3050021FD5494F62
:101BAC003B6823F080533B60FEF752FB80463B685A
:101BBC00990000F18980002E40F08F80D7F89C307E
:101BCC00D4F88C2023F440331343C7F89C30022103
:101BDC0004F12000FFF7A4FD002818BF0546236878
:101BEC001A0214D53749D4F89020D1F89C3023F43C
:101BFC0080531343B2F5805FC1F89C3007D10121AB
:101C0C0004F12000FFF78CFD002818BF054623685F
:101C1C00DB0110D52B4AD4F89410D2F89C3023F465
:101C2C0040130B43B1F5001FC2F89C3003D1D368AD
:101C3C0043F48013D360284602B0BDE8F087FEF76A
:101C4C0007FBA0EB090050457FF68CAEACE63546A1
:101C5C00ACE6B1F1806F7FF448AF0121201DFFF796
:101C6C00D7FC0646002818BF05463EE722F4804202
:101C7C00C3F89C20D3F8882022F040620A43B1F1CB
:101C8C00006FC3F8882003D1DA6842F480123EE773
:101C9C00B1F1806F7FF43CAF0121201DFFF7B8FC40
:101CAC000646002818BF054632E7B1F1806F7FF475
:101CBC0043AF0121201DFFF7ABFC0646002818BFDF
:101CCC00054639E700100240FEF7C2FAA0EB080007
:101CDC0002287FF66CAF032581E735467FE7BB6DA5
:101CEC0043F08053BB65BB6D03F080530193019BA4
:101CFC004FF0010802E600BF026838B5D36823F044
:101D0C00A003D3600446FEF7A3FA05462368DB68FC
:101D1C009B0601D5002038BDFEF79AFA401BB0F5A2
:101D2C007A7FF3D9032038BD38B50368DA685206D8
:101D3C00044601D5002038BD4FF0FF32DA60FEF7C3
:101D4C0087FA05462368DB685B06F3D4FEF780FA56
:101D5C00401BB0F57A7FF5D9032038BD38B5044661
:101D6C00D8B190F8213003F0FF021BB980F8202085
:101D7C0000F0FEFA022384F821302368CA225A624A
:101D8C0053225A622046FFF7CFFF2368054638B12D
:101D9C00FF225A62042384F821300125284638BDDD
:101DAC009A68206922F4E00222F040029A6062688C
:101DBC0099680243A06902430A439A60E2681A6177
:101DCC001A69A16842EA01421A61DA6822F08002BB
:101DDC00DA609B689B0605D42046FFF78DFF08B19F
:101DEC002368D5E723686069DA6C22F00302DA64B1
:101DFC00E269D96C02430A43DA64FF225A62012376
:101E0C0084F82130CAE738B5044600285BD0836CCF
:101E1C001BB980F8443000F05FFA0223A3642368F6
:101E2C0021691A6822F001021A60626822F070625D
:101E3C001A615A6922F400425A615A6922F000422E
:101E4C005A61226B5A619A6822F400429A60E268E5
:101E5C00002A32D001292DD142F400429A605A68EE
:101E6C00A169656AA06A42F0007242F400425A60AD
:101E7C0062690A43E16942EA0122DA60226AE16A94
:101E8C002A430243A5680A432A43B0F5000F1A609F
:101E9C0006D131F4001202BF1A6842F480321A6083
:101EAC001A6842F001021A6000200123E0642364E6
:101EBC00A36438BD42F404429A60022904BF4FF473
:101ECC0000625A60CBE7012038BD000030B5BFB0CE
:101EDC004422002106A800F0D7FA1422002101A800
:101EEC0000F0D2FA9C22002117A800F0CDFA0020B5
:101EFC00FEF746FF0B2306934FF4803307934FF402
:101F0C008073099340230A93012302240B9306A8A0
:101F1C001E231393109411941294149415941694E4
:101F2C00FFF722F80F23002501930521032301A8B5
:101F3C000293039504950595FFF768FA0B4B1793DD
:101F4C004FF400733D930823219317A84FF080732F
:101F5C002C952E953B953A951F942094229424947D
:101F6C0023942593FFF764FC3FB030BD4001C200C1
:101F7C0080B59C4CDFF898829B4DB0B0FEF750F9C1
:101F8C00FFF7A4FFE36C43F00203E364E36C03F09C
:101F9C0002030193019BE36C43F04003E364E36CA5
:101FAC0003F040030293029BFEF744FFE36C8F485F
:101FBC0043F08003E364E36C03F080030393039B1F
:101FCC008B4B0024012680E808014FF0020948F2EF
:101FDC00B85303638460C0F80C900661446184615B
:101FEC00C461046244628462C462FFF70CFF342251
:101FFC00214616A800F048FA3422214623A800F006
:10200C0043FA7C4BAC6085E8180007236B61032313
:10201C00AB610E23EB614FF4CA736B6240F28B130E
:10202C00AB624FF4CD73EB6240F28D1305272B633B
:10203C002846802385F8343085F8353085F83630DD
:10204C004FF4806AEC602C612F62FEF7F1FD2246A2
:10205C0016A92846CDF874A01694179418941994C0
:10206C001A941B941C941E971F94209421948DF801
:10207C0088408DF889408DF88A40FEF745FE32463F
:10208C0023A92846CDF8A8A023942494259426941B
:10209C002794289429942B972C942D942E948DF876
:1020AC00BC408DF8BD408DF8BE40FEF72DFE524869
:1020BC00524B046180E818007F238360FF23C360C8
:1020CC0044618461C461FFF749FE242221460DA8B6
:1020DC0000F0DAF91822214607A800F0D5F93422CD
:1020EC00214623A800F0D0F92C22214616A800F096
:1020FC00CBF9434D434BEC6085E818004FF0040AD4
:10210C00202304A928460493C5F808A00596069632
:10211C00FEF766F90DA928460D960E940F941094AF
:10212C0011941294139414941594FEF70BFB102332
:10213C0007930A2308930823099307A90623284623
:10214C000A930B940C94FEF7C0FA51462846FEF7FE
:10215C00ABFA42F210712846FEF75AFB214628468C
:10216C00FEF7D8F823A92846239424942594269482
:10217C002794289429942A942B942C942D942E945F
:10218C002F94FEF75DFA4FF4C373189316A94023EE
:10219C0028461F931694179719941A94CDF86CA08F
:1021AC00CDF870901D941E942094FEF7D8F921461A
:1021BC002846154DFEF7C2F9144BAC60284685E84D
:1021CC000801EE602C616C61AC61EC612C62FEF775
:1021DC000DFC21462846FEF75AFC21462846FEF700
:1021EC007CFCFEE7001002401C490920E84909204C
:1021FC00005C004000680140C449092000280040F0
:10220C0000490920006C01402400002000540040CB
:10221C00B17570300A4B1A6E42F001021A661A6ED2
:10222C0082B002F001020092009A9A6D42F0805244
:10223C009A659B6D03F080530193019B02B070472C
:10224C00001002400268084B9A4282B00AD103F592
:10225C0024431A6E42F000621A661B6E03F0006390
:10226C000193019B02B07047006C014010B504460D
:10227C0088B01422002103A800F006F92268134B41
:10228C009A4221D1124C1348E36C43F00203E364ED
:10229C00E36C03F002030193019B4FF4407303932F
:1022AC0012230493012305930323069303A9042308
:1022BC000793FEF7C3FAA36D43F40013A365A36D54
:1022CC0003F400130293029B08B010BD00540040AD
:1022DC00001002400004004810B5044688B01422D7
:1022EC00002103A800F0D0F82268144B9A4223D1A5
:1022FC00134CE36C43F04003E364E36C03F04003E2
:10230C000193019BFEF796FD4FF4C07303931223C8
:10231C000493012305930323069303A9042309487B
:10232C000793FEF78BFAA36D43F40003A365A36D2B
:10233C0003F400030293029B08B010BD005C004044
:10234C0000100240001800480268084B9A4282B004
:10235C000AD103F528431A6E42F080621A661B6E8E
:10236C0003F080630193019B02B070470068014049
:10237C000268054B9A4201BF044AD2F8903043F4EC
:10238C000043C2F890307047002800400010024013
:10239C007047FEE7FEE7FEE7FEE7704770477047C1
:1023AC00FDF74EBF0F49D1F8883043F47003C1F8E4
:1023BC0088300D4B1A68002042F001021A609860B8
:1023CC001A6822F0A85222F410221A604FF480529C
:1023DC00DA601A6822F480221A6098614FF0006368
:1023EC008B60704700ED00E000100240DFF834D045
:1023FC00002103E00C4B5B58435004310B480C4B51
:10240C0042189A42F6D30B4A02E0002342F8043BEE
:10241C00094B9A42F9D3FFF7C5FF00F011F8FFF70B
:10242C00A7FDFEE700000A2004250008000000209C
:10243C000400002004000020384A0920FEE70000B8
:10244C0070B50D4E0D4CA41BA4100025A54209D14E
:10245C000B4E0C4C00F020F8A41BA4100025A54238
:10246C0005D170BD56F8253098470135EEE756F882
:10247C00253098470135F2E7FC240008FC240008BD
:10248C00FC2400080025000802440346934200D1B6
:10249C00704703F8011BF9E7F8B500BFF8BC08BC9E
:1024AC009E467047F8B500BFF8BC08BC9E46704706
:1024BC0000000000000000000102030406070809E8
:1024CC00A0860100400D0300801A060000350C00A8
:1024DC0040420F0080841E0000093D0000127A006B
:1024EC000024F40000366E010048E801006CDC02A8
:0424FC00E1010008F2
:04250000BD01000811
:0425040000093D008D
:04000005080023F9D3
:00000001FF
